{
  "contractName": "MIRL",
  "abi": [
    {
      "inputs": [],
      "stateMutability": "nonpayable",
      "type": "constructor"
    },
    {
      "anonymous": false,
      "inputs": [
        {
          "indexed": false,
          "internalType": "address",
          "name": "previousAdmin",
          "type": "address"
        },
        {
          "indexed": false,
          "internalType": "address",
          "name": "newAdmin",
          "type": "address"
        }
      ],
      "name": "AdminChanged",
      "type": "event"
    },
    {
      "anonymous": false,
      "inputs": [
        {
          "indexed": true,
          "internalType": "address",
          "name": "owner",
          "type": "address"
        },
        {
          "indexed": true,
          "internalType": "address",
          "name": "approved",
          "type": "address"
        },
        {
          "indexed": true,
          "internalType": "uint256",
          "name": "tokenId",
          "type": "uint256"
        }
      ],
      "name": "Approval",
      "type": "event"
    },
    {
      "anonymous": false,
      "inputs": [
        {
          "indexed": true,
          "internalType": "address",
          "name": "owner",
          "type": "address"
        },
        {
          "indexed": true,
          "internalType": "address",
          "name": "operator",
          "type": "address"
        },
        {
          "indexed": false,
          "internalType": "bool",
          "name": "approved",
          "type": "bool"
        }
      ],
      "name": "ApprovalForAll",
      "type": "event"
    },
    {
      "anonymous": false,
      "inputs": [
        {
          "indexed": true,
          "internalType": "address",
          "name": "beacon",
          "type": "address"
        }
      ],
      "name": "BeaconUpgraded",
      "type": "event"
    },
    {
      "anonymous": false,
      "inputs": [
        {
          "indexed": false,
          "internalType": "address",
          "name": "account",
          "type": "address"
        }
      ],
      "name": "Paused",
      "type": "event"
    },
    {
      "anonymous": false,
      "inputs": [
        {
          "indexed": true,
          "internalType": "bytes32",
          "name": "role",
          "type": "bytes32"
        },
        {
          "indexed": true,
          "internalType": "bytes32",
          "name": "previousAdminRole",
          "type": "bytes32"
        },
        {
          "indexed": true,
          "internalType": "bytes32",
          "name": "newAdminRole",
          "type": "bytes32"
        }
      ],
      "name": "RoleAdminChanged",
      "type": "event"
    },
    {
      "anonymous": false,
      "inputs": [
        {
          "indexed": true,
          "internalType": "bytes32",
          "name": "role",
          "type": "bytes32"
        },
        {
          "indexed": true,
          "internalType": "address",
          "name": "account",
          "type": "address"
        },
        {
          "indexed": true,
          "internalType": "address",
          "name": "sender",
          "type": "address"
        }
      ],
      "name": "RoleGranted",
      "type": "event"
    },
    {
      "anonymous": false,
      "inputs": [
        {
          "indexed": true,
          "internalType": "bytes32",
          "name": "role",
          "type": "bytes32"
        },
        {
          "indexed": true,
          "internalType": "address",
          "name": "account",
          "type": "address"
        },
        {
          "indexed": true,
          "internalType": "address",
          "name": "sender",
          "type": "address"
        }
      ],
      "name": "RoleRevoked",
      "type": "event"
    },
    {
      "anonymous": false,
      "inputs": [
        {
          "indexed": true,
          "internalType": "address",
          "name": "from",
          "type": "address"
        },
        {
          "indexed": true,
          "internalType": "address",
          "name": "to",
          "type": "address"
        },
        {
          "indexed": true,
          "internalType": "uint256",
          "name": "tokenId",
          "type": "uint256"
        }
      ],
      "name": "Transfer",
      "type": "event"
    },
    {
      "anonymous": false,
      "inputs": [
        {
          "indexed": false,
          "internalType": "address",
          "name": "account",
          "type": "address"
        }
      ],
      "name": "Unpaused",
      "type": "event"
    },
    {
      "anonymous": false,
      "inputs": [
        {
          "indexed": true,
          "internalType": "address",
          "name": "implementation",
          "type": "address"
        }
      ],
      "name": "Upgraded",
      "type": "event"
    },
    {
      "inputs": [],
      "name": "DEFAULT_ADMIN_ROLE",
      "outputs": [
        {
          "internalType": "bytes32",
          "name": "",
          "type": "bytes32"
        }
      ],
      "stateMutability": "view",
      "type": "function",
      "constant": true
    },
    {
      "inputs": [],
      "name": "MINTER_ROLE",
      "outputs": [
        {
          "internalType": "bytes32",
          "name": "",
          "type": "bytes32"
        }
      ],
      "stateMutability": "view",
      "type": "function",
      "constant": true
    },
    {
      "inputs": [],
      "name": "PAUSER_ROLE",
      "outputs": [
        {
          "internalType": "bytes32",
          "name": "",
          "type": "bytes32"
        }
      ],
      "stateMutability": "view",
      "type": "function",
      "constant": true
    },
    {
      "inputs": [],
      "name": "UPGRADER_ROLE",
      "outputs": [
        {
          "internalType": "bytes32",
          "name": "",
          "type": "bytes32"
        }
      ],
      "stateMutability": "view",
      "type": "function",
      "constant": true
    },
    {
      "inputs": [
        {
          "internalType": "address",
          "name": "to",
          "type": "address"
        },
        {
          "internalType": "uint256",
          "name": "tokenId",
          "type": "uint256"
        }
      ],
      "name": "approve",
      "outputs": [],
      "stateMutability": "nonpayable",
      "type": "function"
    },
    {
      "inputs": [
        {
          "internalType": "address",
          "name": "owner",
          "type": "address"
        }
      ],
      "name": "balanceOf",
      "outputs": [
        {
          "internalType": "uint256",
          "name": "",
          "type": "uint256"
        }
      ],
      "stateMutability": "view",
      "type": "function",
      "constant": true
    },
    {
      "inputs": [
        {
          "internalType": "uint256",
          "name": "tokenId",
          "type": "uint256"
        }
      ],
      "name": "burn",
      "outputs": [],
      "stateMutability": "nonpayable",
      "type": "function"
    },
    {
      "inputs": [
        {
          "internalType": "uint256",
          "name": "tokenId",
          "type": "uint256"
        }
      ],
      "name": "getApproved",
      "outputs": [
        {
          "internalType": "address",
          "name": "",
          "type": "address"
        }
      ],
      "stateMutability": "view",
      "type": "function",
      "constant": true
    },
    {
      "inputs": [
        {
          "internalType": "bytes32",
          "name": "role",
          "type": "bytes32"
        }
      ],
      "name": "getRoleAdmin",
      "outputs": [
        {
          "internalType": "bytes32",
          "name": "",
          "type": "bytes32"
        }
      ],
      "stateMutability": "view",
      "type": "function",
      "constant": true
    },
    {
      "inputs": [
        {
          "internalType": "bytes32",
          "name": "role",
          "type": "bytes32"
        },
        {
          "internalType": "address",
          "name": "account",
          "type": "address"
        }
      ],
      "name": "grantRole",
      "outputs": [],
      "stateMutability": "nonpayable",
      "type": "function"
    },
    {
      "inputs": [
        {
          "internalType": "bytes32",
          "name": "role",
          "type": "bytes32"
        },
        {
          "internalType": "address",
          "name": "account",
          "type": "address"
        }
      ],
      "name": "hasRole",
      "outputs": [
        {
          "internalType": "bool",
          "name": "",
          "type": "bool"
        }
      ],
      "stateMutability": "view",
      "type": "function",
      "constant": true
    },
    {
      "inputs": [
        {
          "internalType": "address",
          "name": "owner",
          "type": "address"
        },
        {
          "internalType": "address",
          "name": "operator",
          "type": "address"
        }
      ],
      "name": "isApprovedForAll",
      "outputs": [
        {
          "internalType": "bool",
          "name": "",
          "type": "bool"
        }
      ],
      "stateMutability": "view",
      "type": "function",
      "constant": true
    },
    {
      "inputs": [],
      "name": "name",
      "outputs": [
        {
          "internalType": "string",
          "name": "",
          "type": "string"
        }
      ],
      "stateMutability": "view",
      "type": "function",
      "constant": true
    },
    {
      "inputs": [
        {
          "internalType": "uint256",
          "name": "tokenId",
          "type": "uint256"
        }
      ],
      "name": "ownerOf",
      "outputs": [
        {
          "internalType": "address",
          "name": "",
          "type": "address"
        }
      ],
      "stateMutability": "view",
      "type": "function",
      "constant": true
    },
    {
      "inputs": [],
      "name": "paused",
      "outputs": [
        {
          "internalType": "bool",
          "name": "",
          "type": "bool"
        }
      ],
      "stateMutability": "view",
      "type": "function",
      "constant": true
    },
    {
      "inputs": [],
      "name": "proxiableUUID",
      "outputs": [
        {
          "internalType": "bytes32",
          "name": "",
          "type": "bytes32"
        }
      ],
      "stateMutability": "view",
      "type": "function",
      "constant": true
    },
    {
      "inputs": [
        {
          "internalType": "bytes32",
          "name": "role",
          "type": "bytes32"
        },
        {
          "internalType": "address",
          "name": "account",
          "type": "address"
        }
      ],
      "name": "renounceRole",
      "outputs": [],
      "stateMutability": "nonpayable",
      "type": "function"
    },
    {
      "inputs": [
        {
          "internalType": "bytes32",
          "name": "role",
          "type": "bytes32"
        },
        {
          "internalType": "address",
          "name": "account",
          "type": "address"
        }
      ],
      "name": "revokeRole",
      "outputs": [],
      "stateMutability": "nonpayable",
      "type": "function"
    },
    {
      "inputs": [
        {
          "internalType": "address",
          "name": "from",
          "type": "address"
        },
        {
          "internalType": "address",
          "name": "to",
          "type": "address"
        },
        {
          "internalType": "uint256",
          "name": "tokenId",
          "type": "uint256"
        }
      ],
      "name": "safeTransferFrom",
      "outputs": [],
      "stateMutability": "nonpayable",
      "type": "function"
    },
    {
      "inputs": [
        {
          "internalType": "address",
          "name": "from",
          "type": "address"
        },
        {
          "internalType": "address",
          "name": "to",
          "type": "address"
        },
        {
          "internalType": "uint256",
          "name": "tokenId",
          "type": "uint256"
        },
        {
          "internalType": "bytes",
          "name": "_data",
          "type": "bytes"
        }
      ],
      "name": "safeTransferFrom",
      "outputs": [],
      "stateMutability": "nonpayable",
      "type": "function"
    },
    {
      "inputs": [
        {
          "internalType": "address",
          "name": "operator",
          "type": "address"
        },
        {
          "internalType": "bool",
          "name": "approved",
          "type": "bool"
        }
      ],
      "name": "setApprovalForAll",
      "outputs": [],
      "stateMutability": "nonpayable",
      "type": "function"
    },
    {
      "inputs": [],
      "name": "symbol",
      "outputs": [
        {
          "internalType": "string",
          "name": "",
          "type": "string"
        }
      ],
      "stateMutability": "view",
      "type": "function",
      "constant": true
    },
    {
      "inputs": [
        {
          "internalType": "uint256",
          "name": "index",
          "type": "uint256"
        }
      ],
      "name": "tokenByIndex",
      "outputs": [
        {
          "internalType": "uint256",
          "name": "",
          "type": "uint256"
        }
      ],
      "stateMutability": "view",
      "type": "function",
      "constant": true
    },
    {
      "inputs": [
        {
          "internalType": "address",
          "name": "owner",
          "type": "address"
        },
        {
          "internalType": "uint256",
          "name": "index",
          "type": "uint256"
        }
      ],
      "name": "tokenOfOwnerByIndex",
      "outputs": [
        {
          "internalType": "uint256",
          "name": "",
          "type": "uint256"
        }
      ],
      "stateMutability": "view",
      "type": "function",
      "constant": true
    },
    {
      "inputs": [
        {
          "internalType": "uint256",
          "name": "tokenId",
          "type": "uint256"
        }
      ],
      "name": "tokenURI",
      "outputs": [
        {
          "internalType": "string",
          "name": "",
          "type": "string"
        }
      ],
      "stateMutability": "view",
      "type": "function",
      "constant": true
    },
    {
      "inputs": [],
      "name": "totalSupply",
      "outputs": [
        {
          "internalType": "uint256",
          "name": "",
          "type": "uint256"
        }
      ],
      "stateMutability": "view",
      "type": "function",
      "constant": true
    },
    {
      "inputs": [
        {
          "internalType": "address",
          "name": "from",
          "type": "address"
        },
        {
          "internalType": "address",
          "name": "to",
          "type": "address"
        },
        {
          "internalType": "uint256",
          "name": "tokenId",
          "type": "uint256"
        }
      ],
      "name": "transferFrom",
      "outputs": [],
      "stateMutability": "nonpayable",
      "type": "function"
    },
    {
      "inputs": [
        {
          "internalType": "address",
          "name": "newImplementation",
          "type": "address"
        }
      ],
      "name": "upgradeTo",
      "outputs": [],
      "stateMutability": "nonpayable",
      "type": "function"
    },
    {
      "inputs": [
        {
          "internalType": "address",
          "name": "newImplementation",
          "type": "address"
        },
        {
          "internalType": "bytes",
          "name": "data",
          "type": "bytes"
        }
      ],
      "name": "upgradeToAndCall",
      "outputs": [],
      "stateMutability": "payable",
      "type": "function",
      "payable": true
    },
    {
      "inputs": [],
      "name": "initialize",
      "outputs": [],
      "stateMutability": "nonpayable",
      "type": "function"
    },
    {
      "inputs": [],
      "name": "pause",
      "outputs": [],
      "stateMutability": "nonpayable",
      "type": "function"
    },
    {
      "inputs": [],
      "name": "unpause",
      "outputs": [],
      "stateMutability": "nonpayable",
      "type": "function"
    },
    {
      "inputs": [
        {
          "internalType": "address",
          "name": "to",
          "type": "address"
        }
      ],
      "name": "safeMint",
      "outputs": [],
      "stateMutability": "nonpayable",
      "type": "function"
    },
    {
      "inputs": [
        {
          "internalType": "bytes4",
          "name": "interfaceId",
          "type": "bytes4"
        }
      ],
      "name": "supportsInterface",
      "outputs": [
        {
          "internalType": "bool",
          "name": "",
          "type": "bool"
        }
      ],
      "stateMutability": "view",
      "type": "function",
      "constant": true
    }
  ],
  "bytecode": "0x60a0604052306080523480156200001557600080fd5b50600054610100900460ff16620000335760005460ff16156200003d565b6200003d620000e2565b620000a55760405162461bcd60e51b815260206004820152602e60248201527f496e697469616c697a61626c653a20636f6e747261637420697320616c72656160448201526d191e481a5b9a5d1a585b1a5e995960921b606482015260840160405180910390fd5b600054610100900460ff16158015620000c8576000805461ffff19166101011790555b8015620000db576000805461ff00191690555b506200010f565b6000620000fa306200010060201b620012991760201c565b15905090565b6001600160a01b03163b151590565b608051612f596200014760003960008181610a4401528181610a8401528181610c2901528181610c690152610d8b0152612f596000f3fe6080604052600436106101f95760003560e01c806352d1902d1161010d578063a217fddf116100a0578063d53913931161006f578063d539139314610587578063d547741f146105bb578063e63ab1e9146105db578063e985e9c5146105fd578063f72c0d8b1461064657600080fd5b8063a217fddf14610512578063a22cb46514610527578063b88d4fde14610547578063c87b56dd1461056757600080fd5b80638129fc1c116100dc5780638129fc1c146104b35780638456cb59146104c857806391d14854146104dd57806395d89b41146104fd57600080fd5b806352d1902d146104465780635c975abb1461045b5780636352211e1461047357806370a082311461049357600080fd5b80632f745c591161019057806340d097c31161015f57806340d097c3146103b357806342842e0e146103d357806342966c68146103f35780634f1ef286146104135780634f6ccce71461042657600080fd5b80632f745c591461033e57806336568abe1461035e5780633659cfe61461037e5780633f4ba83a1461039e57600080fd5b806318160ddd116101cc57806318160ddd146102af57806323b872dd146102ce578063248a9ca3146102ee5780632f2ff15d1461031e57600080fd5b806301ffc9a7146101fe57806306fdde0314610233578063081812fc14610255578063095ea7b31461028d575b600080fd5b34801561020a57600080fd5b5061021e61021936600461279f565b61067a565b60405190151581526020015b60405180910390f35b34801561023f57600080fd5b5061024861068b565b60405161022a9190612814565b34801561026157600080fd5b50610275610270366004612827565b61071d565b6040516001600160a01b03909116815260200161022a565b34801561029957600080fd5b506102ad6102a836600461285c565b6107b7565b005b3480156102bb57600080fd5b506099545b60405190815260200161022a565b3480156102da57600080fd5b506102ad6102e9366004612886565b6108cd565b3480156102fa57600080fd5b506102c0610309366004612827565b600090815260fb602052604090206001015490565b34801561032a57600080fd5b506102ad6103393660046128c2565b6108ff565b34801561034a57600080fd5b506102c061035936600461285c565b610925565b34801561036a57600080fd5b506102ad6103793660046128c2565b6109bb565b34801561038a57600080fd5b506102ad6103993660046128ee565b610a39565b3480156103aa57600080fd5b506102ad610b19565b3480156103bf57600080fd5b506102ad6103ce3660046128ee565b610b3a565b3480156103df57600080fd5b506102ad6103ee366004612886565b610b8c565b3480156103ff57600080fd5b506102ad61040e366004612827565b610ba7565b6102ad6104213660046129ac565b610c1e565b34801561043257600080fd5b506102c0610441366004612827565b610ceb565b34801561045257600080fd5b506102c0610d7e565b34801561046757600080fd5b5060c95460ff1661021e565b34801561047f57600080fd5b5061027561048e366004612827565b610e31565b34801561049f57600080fd5b506102c06104ae3660046128ee565b610ea8565b3480156104bf57600080fd5b506102ad610f2f565b3480156104d457600080fd5b506102ad6110c8565b3480156104e957600080fd5b5061021e6104f83660046128c2565b6110e9565b34801561050957600080fd5b50610248611114565b34801561051e57600080fd5b506102c0600081565b34801561053357600080fd5b506102ad6105423660046129fa565b611123565b34801561055357600080fd5b506102ad610562366004612a36565b61112e565b34801561057357600080fd5b50610248610582366004612827565b611166565b34801561059357600080fd5b506102c07f9f2df0fed2c77648de5860a4cc508cd0818c85b8b8a1ab4ceeef8d981c8956a681565b3480156105c757600080fd5b506102ad6105d63660046128c2565b611273565b3480156105e757600080fd5b506102c0600080516020612edd83398151915281565b34801561060957600080fd5b5061021e610618366004612a9e565b6001600160a01b039182166000908152606a6020908152604080832093909416825291909152205460ff1690565b34801561065257600080fd5b506102c07f189ab7a9244df0848122154315af71fe140f3db0fe014031783b0946b8c9d2e381565b6000610685826112a8565b92915050565b60606065805461069a90612ac8565b80601f01602080910402602001604051908101604052809291908181526020018280546106c690612ac8565b80156107135780601f106106e857610100808354040283529160200191610713565b820191906000526020600020905b8154815290600101906020018083116106f657829003601f168201915b5050505050905090565b6000818152606760205260408120546001600160a01b031661079b5760405162461bcd60e51b815260206004820152602c60248201527f4552433732313a20617070726f76656420717565727920666f72206e6f6e657860448201526b34b9ba32b73a103a37b5b2b760a11b60648201526084015b60405180910390fd5b506000908152606960205260409020546001600160a01b031690565b60006107c282610e31565b9050806001600160a01b0316836001600160a01b031614156108305760405162461bcd60e51b815260206004820152602160248201527f4552433732313a20617070726f76616c20746f2063757272656e74206f776e656044820152603960f91b6064820152608401610792565b336001600160a01b038216148061084c575061084c8133610618565b6108be5760405162461bcd60e51b815260206004820152603860248201527f4552433732313a20617070726f76652063616c6c6572206973206e6f74206f7760448201527f6e6572206e6f7220617070726f76656420666f7220616c6c00000000000000006064820152608401610792565b6108c883836112cd565b505050565b6108d8335b8261133b565b6108f45760405162461bcd60e51b815260040161079290612b03565b6108c8838383611432565b600082815260fb602052604090206001015461091b81336115d9565b6108c8838361163d565b600061093083610ea8565b82106109925760405162461bcd60e51b815260206004820152602b60248201527f455243373231456e756d657261626c653a206f776e657220696e646578206f7560448201526a74206f6620626f756e647360a81b6064820152608401610792565b506001600160a01b03919091166000908152609760209081526040808320938352929052205490565b6001600160a01b0381163314610a2b5760405162461bcd60e51b815260206004820152602f60248201527f416363657373436f6e74726f6c3a2063616e206f6e6c792072656e6f756e636560448201526e103937b632b9903337b91039b2b63360891b6064820152608401610792565b610a3582826116c3565b5050565b306001600160a01b037f0000000000000000000000000000000000000000000000000000000000000000161415610a825760405162461bcd60e51b815260040161079290612b54565b7f00000000000000000000000000000000000000000000000000000000000000006001600160a01b0316610acb600080516020612ebd833981519152546001600160a01b031690565b6001600160a01b031614610af15760405162461bcd60e51b815260040161079290612ba0565b610afa8161172a565b60408051600080825260208201909252610b1691839190611755565b50565b600080516020612edd833981519152610b3281336115d9565b610b166118c0565b7f9f2df0fed2c77648de5860a4cc508cd0818c85b8b8a1ab4ceeef8d981c8956a6610b6581336115d9565b6000610b716101c35490565b9050610b826101c380546001019055565b6108c88382611953565b6108c88383836040518060200160405280600081525061112e565b610bb0336108d2565b610c155760405162461bcd60e51b815260206004820152603060248201527f4552433732314275726e61626c653a2063616c6c6572206973206e6f74206f7760448201526f1b995c881b9bdc88185c1c1c9bdd995960821b6064820152608401610792565b610b168161196d565b306001600160a01b037f0000000000000000000000000000000000000000000000000000000000000000161415610c675760405162461bcd60e51b815260040161079290612b54565b7f00000000000000000000000000000000000000000000000000000000000000006001600160a01b0316610cb0600080516020612ebd833981519152546001600160a01b031690565b6001600160a01b031614610cd65760405162461bcd60e51b815260040161079290612ba0565b610cdf8261172a565b610a3582826001611755565b6000610cf660995490565b8210610d595760405162461bcd60e51b815260206004820152602c60248201527f455243373231456e756d657261626c653a20676c6f62616c20696e646578206f60448201526b7574206f6620626f756e647360a01b6064820152608401610792565b60998281548110610d6c57610d6c612bec565b90600052602060002001549050919050565b6000306001600160a01b037f00000000000000000000000000000000000000000000000000000000000000001614610e1e5760405162461bcd60e51b815260206004820152603860248201527f555550535570677261646561626c653a206d757374206e6f742062652063616c60448201527f6c6564207468726f7567682064656c656761746563616c6c00000000000000006064820152608401610792565b50600080516020612ebd83398151915290565b6000818152606760205260408120546001600160a01b0316806106855760405162461bcd60e51b815260206004820152602960248201527f4552433732313a206f776e657220717565727920666f72206e6f6e657869737460448201526832b73a103a37b5b2b760b91b6064820152608401610792565b60006001600160a01b038216610f135760405162461bcd60e51b815260206004820152602a60248201527f4552433732313a2062616c616e636520717565727920666f7220746865207a65604482015269726f206164647265737360b01b6064820152608401610792565b506001600160a01b031660009081526068602052604090205490565b600054610100900460ff16610f4a5760005460ff1615610f4e565b303b155b610fb15760405162461bcd60e51b815260206004820152602e60248201527f496e697469616c697a61626c653a20636f6e747261637420697320616c72656160448201526d191e481a5b9a5d1a585b1a5e995960921b6064820152608401610792565b600054610100900460ff16158015610fd3576000805461ffff19166101011790555b611015604051806040016040528060048152602001631352549360e21b815250604051806040016040528060048152602001631352549360e21b815250611a14565b61101d611a45565b611025611a6e565b61102d611a45565b611035611a45565b61103d611a45565b61104860003361163d565b611060600080516020612edd8339815191523361163d565b61108a7f9f2df0fed2c77648de5860a4cc508cd0818c85b8b8a1ab4ceeef8d981c8956a63361163d565b6110b47f189ab7a9244df0848122154315af71fe140f3db0fe014031783b0946b8c9d2e33361163d565b8015610b16576000805461ff001916905550565b600080516020612edd8339815191526110e181336115d9565b610b16611a9d565b600091825260fb602090815260408084206001600160a01b0393909316845291905290205460ff1690565b60606066805461069a90612ac8565b610a35338383611b18565b611138338361133b565b6111545760405162461bcd60e51b815260040161079290612b03565b61116084848484611be7565b50505050565b6000818152606760205260409020546060906001600160a01b03166111e55760405162461bcd60e51b815260206004820152602f60248201527f4552433732314d657461646174613a2055524920717565727920666f72206e6f60448201526e3732bc34b9ba32b73a103a37b5b2b760891b6064820152608401610792565b600061122160408051808201909152601b81527f68747470733a2f2f6e66742e6d69726c2e636c75622f6d6574612f0000000000602082015290565b90506000815111611241576040518060200160405280600081525061126c565b8061124b84611c1a565b60405160200161125c929190612c02565b6040516020818303038152906040525b9392505050565b600082815260fb602052604090206001015461128f81336115d9565b6108c883836116c3565b6001600160a01b03163b151590565b60006001600160e01b03198216637965db0b60e01b1480610685575061068582611d18565b600081815260696020526040902080546001600160a01b0319166001600160a01b038416908117909155819061130282610e31565b6001600160a01b03167f8c5be1e5ebec7d5bd14f71427d1e84f3dd0314c0f7b2291e5b200ac8c7c3b92560405160405180910390a45050565b6000818152606760205260408120546001600160a01b03166113b45760405162461bcd60e51b815260206004820152602c60248201527f4552433732313a206f70657261746f7220717565727920666f72206e6f6e657860448201526b34b9ba32b73a103a37b5b2b760a11b6064820152608401610792565b60006113bf83610e31565b9050806001600160a01b0316846001600160a01b031614806113fa5750836001600160a01b03166113ef8461071d565b6001600160a01b0316145b8061142a57506001600160a01b038082166000908152606a602090815260408083209388168352929052205460ff165b949350505050565b826001600160a01b031661144582610e31565b6001600160a01b0316146114a95760405162461bcd60e51b815260206004820152602560248201527f4552433732313a207472616e736665722066726f6d20696e636f72726563742060448201526437bbb732b960d91b6064820152608401610792565b6001600160a01b03821661150b5760405162461bcd60e51b8152602060048201526024808201527f4552433732313a207472616e7366657220746f20746865207a65726f206164646044820152637265737360e01b6064820152608401610792565b611516838383611d3d565b6115216000826112cd565b6001600160a01b038316600090815260686020526040812080546001929061154a908490612c47565b90915550506001600160a01b0382166000908152606860205260408120805460019290611578908490612c5e565b909155505060008181526067602052604080822080546001600160a01b0319166001600160a01b0386811691821790925591518493918716917fddf252ad1be2c89b69c2b068fc378daa952ba7f163c4a11628f55a4df523b3ef91a4505050565b6115e382826110e9565b610a35576115fb816001600160a01b03166014611d8e565b611606836020611d8e565b604051602001611617929190612c76565b60408051601f198184030181529082905262461bcd60e51b825261079291600401612814565b61164782826110e9565b610a3557600082815260fb602090815260408083206001600160a01b03851684529091529020805460ff1916600117905561167f3390565b6001600160a01b0316816001600160a01b0316837f2f8788117e7eff1d82e926ec794901d17c78024a50270940304540a733656f0d60405160405180910390a45050565b6116cd82826110e9565b15610a3557600082815260fb602090815260408083206001600160a01b0385168085529252808320805460ff1916905551339285917ff6391f5c32d9c69d2a47ea670b442974b53935d1edc7fd64eb21e047a839171b9190a45050565b7f189ab7a9244df0848122154315af71fe140f3db0fe014031783b0946b8c9d2e3610a3581336115d9565b7f4910fdfa16fed3260ed0e7147f7cc6da11a60208b5b9406d12a635614ffd91435460ff1615611788576108c883611f2a565b826001600160a01b03166352d1902d6040518163ffffffff1660e01b8152600401602060405180830381865afa9250505080156117e2575060408051601f3d908101601f191682019092526117df91810190612ceb565b60015b6118455760405162461bcd60e51b815260206004820152602e60248201527f45524331393637557067726164653a206e657720696d706c656d656e7461746960448201526d6f6e206973206e6f74205555505360901b6064820152608401610792565b600080516020612ebd83398151915281146118b45760405162461bcd60e51b815260206004820152602960248201527f45524331393637557067726164653a20756e737570706f727465642070726f786044820152681a58589b195555525160ba1b6064820152608401610792565b506108c8838383611fc6565b60c95460ff166119095760405162461bcd60e51b815260206004820152601460248201527314185d5cd8589b194e881b9bdd081c185d5cd95960621b6044820152606401610792565b60c9805460ff191690557f5db9ee0a495bf2e6ff9c91a7834c1ba4fdd244a5e8aa4e537bd38aeae4b073aa335b6040516001600160a01b03909116815260200160405180910390a1565b610a35828260405180602001604052806000815250611feb565b600061197882610e31565b905061198681600084611d3d565b6119916000836112cd565b6001600160a01b03811660009081526068602052604081208054600192906119ba908490612c47565b909155505060008281526067602052604080822080546001600160a01b0319169055518391906001600160a01b038416907fddf252ad1be2c89b69c2b068fc378daa952ba7f163c4a11628f55a4df523b3ef908390a45050565b600054610100900460ff16611a3b5760405162461bcd60e51b815260040161079290612d04565b610a35828261201e565b600054610100900460ff16611a6c5760405162461bcd60e51b815260040161079290612d04565b565b600054610100900460ff16611a955760405162461bcd60e51b815260040161079290612d04565b611a6c61206c565b60c95460ff1615611ae35760405162461bcd60e51b815260206004820152601060248201526f14185d5cd8589b194e881c185d5cd95960821b6044820152606401610792565b60c9805460ff191660011790557f62e78cea01bee320cd4e420270b5ea74000d11b0c9f74754ebdbfc544b05a2586119363390565b816001600160a01b0316836001600160a01b03161415611b7a5760405162461bcd60e51b815260206004820152601960248201527f4552433732313a20617070726f766520746f2063616c6c6572000000000000006044820152606401610792565b6001600160a01b038381166000818152606a6020908152604080832094871680845294825291829020805460ff191686151590811790915591519182527f17307eab39ab6107e8899845ad3d59bd9653f200f220920489ca2b5937696c31910160405180910390a3505050565b611bf2848484611432565b611bfe8484848461209f565b6111605760405162461bcd60e51b815260040161079290612d4f565b606081611c3e5750506040805180820190915260018152600360fc1b602082015290565b8160005b8115611c685780611c5281612da1565b9150611c619050600a83612dd2565b9150611c42565b60008167ffffffffffffffff811115611c8357611c83612909565b6040519080825280601f01601f191660200182016040528015611cad576020820181803683370190505b5090505b841561142a57611cc2600183612c47565b9150611ccf600a86612de6565b611cda906030612c5e565b60f81b818381518110611cef57611cef612bec565b60200101906001600160f81b031916908160001a905350611d11600a86612dd2565b9450611cb1565b60006001600160e01b0319821663780e9d6360e01b148061068557506106858261219d565b60c95460ff1615611d835760405162461bcd60e51b815260206004820152601060248201526f14185d5cd8589b194e881c185d5cd95960821b6044820152606401610792565b6108c88383836121ed565b60606000611d9d836002612dfa565b611da8906002612c5e565b67ffffffffffffffff811115611dc057611dc0612909565b6040519080825280601f01601f191660200182016040528015611dea576020820181803683370190505b509050600360fc1b81600081518110611e0557611e05612bec565b60200101906001600160f81b031916908160001a905350600f60fb1b81600181518110611e3457611e34612bec565b60200101906001600160f81b031916908160001a9053506000611e58846002612dfa565b611e63906001612c5e565b90505b6001811115611edb576f181899199a1a9b1b9c1cb0b131b232b360811b85600f1660108110611e9757611e97612bec565b1a60f81b828281518110611ead57611ead612bec565b60200101906001600160f81b031916908160001a90535060049490941c93611ed481612e19565b9050611e66565b50831561126c5760405162461bcd60e51b815260206004820181905260248201527f537472696e67733a20686578206c656e67746820696e73756666696369656e746044820152606401610792565b6001600160a01b0381163b611f975760405162461bcd60e51b815260206004820152602d60248201527f455243313936373a206e657720696d706c656d656e746174696f6e206973206e60448201526c1bdd08184818dbdb9d1c9858dd609a1b6064820152608401610792565b600080516020612ebd83398151915280546001600160a01b0319166001600160a01b0392909216919091179055565b611fcf836122a5565b600082511180611fdc5750805b156108c85761116083836122e5565b611ff583836123d9565b612002600084848461209f565b6108c85760405162461bcd60e51b815260040161079290612d4f565b600054610100900460ff166120455760405162461bcd60e51b815260040161079290612d04565b81516120589060659060208501906126f0565b5080516108c89060669060208401906126f0565b600054610100900460ff166120935760405162461bcd60e51b815260040161079290612d04565b60c9805460ff19169055565b60006001600160a01b0384163b1561219257604051630a85bd0160e11b81526001600160a01b0385169063150b7a02906120e3903390899088908890600401612e30565b6020604051808303816000875af192505050801561211e575060408051601f3d908101601f1916820190925261211b91810190612e6d565b60015b612178573d80801561214c576040519150601f19603f3d011682016040523d82523d6000602084013e612151565b606091505b5080516121705760405162461bcd60e51b815260040161079290612d4f565b805181602001fd5b6001600160e01b031916630a85bd0160e11b14905061142a565b506001949350505050565b60006001600160e01b031982166380ac58cd60e01b14806121ce57506001600160e01b03198216635b5e139f60e01b145b8061068557506301ffc9a760e01b6001600160e01b0319831614610685565b6001600160a01b0383166122485761224381609980546000838152609a60205260408120829055600182018355919091527f72a152ddfb8e864297c917af52ea6c1c68aead0fee1a62673fcc7e0c94979d000155565b61226b565b816001600160a01b0316836001600160a01b03161461226b5761226b8382612527565b6001600160a01b038216612282576108c8816125c4565b826001600160a01b0316826001600160a01b0316146108c8576108c88282612673565b6122ae81611f2a565b6040516001600160a01b038216907fbc7cd75a20ee27fd9adebab32041f755214dbc6bffa90cc0225b39da2e5c2d3b90600090a250565b60606001600160a01b0383163b61234d5760405162461bcd60e51b815260206004820152602660248201527f416464726573733a2064656c65676174652063616c6c20746f206e6f6e2d636f6044820152651b9d1c9858dd60d21b6064820152608401610792565b600080846001600160a01b0316846040516123689190612e8a565b600060405180830381855af49150503d80600081146123a3576040519150601f19603f3d011682016040523d82523d6000602084013e6123a8565b606091505b50915091506123d08282604051806060016040528060278152602001612efd602791396126b7565b95945050505050565b6001600160a01b03821661242f5760405162461bcd60e51b815260206004820181905260248201527f4552433732313a206d696e7420746f20746865207a65726f20616464726573736044820152606401610792565b6000818152606760205260409020546001600160a01b0316156124945760405162461bcd60e51b815260206004820152601c60248201527f4552433732313a20746f6b656e20616c7265616479206d696e746564000000006044820152606401610792565b6124a060008383611d3d565b6001600160a01b03821660009081526068602052604081208054600192906124c9908490612c5e565b909155505060008181526067602052604080822080546001600160a01b0319166001600160a01b03861690811790915590518392907fddf252ad1be2c89b69c2b068fc378daa952ba7f163c4a11628f55a4df523b3ef908290a45050565b6000600161253484610ea8565b61253e9190612c47565b600083815260986020526040902054909150808214612591576001600160a01b03841660009081526097602090815260408083208584528252808320548484528184208190558352609890915290208190555b5060009182526098602090815260408084208490556001600160a01b039094168352609781528383209183525290812055565b6099546000906125d690600190612c47565b6000838152609a6020526040812054609980549394509092849081106125fe576125fe612bec565b90600052602060002001549050806099838154811061261f5761261f612bec565b6000918252602080832090910192909255828152609a9091526040808220849055858252812055609980548061265757612657612ea6565b6001900381819060005260206000200160009055905550505050565b600061267e83610ea8565b6001600160a01b039093166000908152609760209081526040808320868452825280832085905593825260989052919091209190915550565b606083156126c657508161126c565b8251156126d65782518084602001fd5b8160405162461bcd60e51b81526004016107929190612814565b8280546126fc90612ac8565b90600052602060002090601f01602090048101928261271e5760008555612764565b82601f1061273757805160ff1916838001178555612764565b82800160010185558215612764579182015b82811115612764578251825591602001919060010190612749565b50612770929150612774565b5090565b5b808211156127705760008155600101612775565b6001600160e01b031981168114610b1657600080fd5b6000602082840312156127b157600080fd5b813561126c81612789565b60005b838110156127d75781810151838201526020016127bf565b838111156111605750506000910152565b600081518084526128008160208601602086016127bc565b601f01601f19169290920160200192915050565b60208152600061126c60208301846127e8565b60006020828403121561283957600080fd5b5035919050565b80356001600160a01b038116811461285757600080fd5b919050565b6000806040838503121561286f57600080fd5b61287883612840565b946020939093013593505050565b60008060006060848603121561289b57600080fd5b6128a484612840565b92506128b260208501612840565b9150604084013590509250925092565b600080604083850312156128d557600080fd5b823591506128e560208401612840565b90509250929050565b60006020828403121561290057600080fd5b61126c82612840565b634e487b7160e01b600052604160045260246000fd5b600082601f83011261293057600080fd5b813567ffffffffffffffff8082111561294b5761294b612909565b604051601f8301601f19908116603f0116810190828211818310171561297357612973612909565b8160405283815286602085880101111561298c57600080fd5b836020870160208301376000602085830101528094505050505092915050565b600080604083850312156129bf57600080fd5b6129c883612840565b9150602083013567ffffffffffffffff8111156129e457600080fd5b6129f08582860161291f565b9150509250929050565b60008060408385031215612a0d57600080fd5b612a1683612840565b915060208301358015158114612a2b57600080fd5b809150509250929050565b60008060008060808587031215612a4c57600080fd5b612a5585612840565b9350612a6360208601612840565b925060408501359150606085013567ffffffffffffffff811115612a8657600080fd5b612a928782880161291f565b91505092959194509250565b60008060408385031215612ab157600080fd5b612aba83612840565b91506128e560208401612840565b600181811c90821680612adc57607f821691505b60208210811415612afd57634e487b7160e01b600052602260045260246000fd5b50919050565b60208082526031908201527f4552433732313a207472616e736665722063616c6c6572206973206e6f74206f6040820152701ddb995c881b9bdc88185c1c1c9bdd9959607a1b606082015260800190565b6020808252602c908201527f46756e6374696f6e206d7573742062652063616c6c6564207468726f7567682060408201526b19195b1959d85d1958d85b1b60a21b606082015260800190565b6020808252602c908201527f46756e6374696f6e206d7573742062652063616c6c6564207468726f7567682060408201526b6163746976652070726f787960a01b606082015260800190565b634e487b7160e01b600052603260045260246000fd5b60008351612c148184602088016127bc565b835190830190612c288183602088016127bc565b01949350505050565b634e487b7160e01b600052601160045260246000fd5b600082821015612c5957612c59612c31565b500390565b60008219821115612c7157612c71612c31565b500190565b7f416363657373436f6e74726f6c3a206163636f756e7420000000000000000000815260008351612cae8160178501602088016127bc565b7001034b99036b4b9b9b4b733903937b6329607d1b6017918401918201528351612cdf8160288401602088016127bc565b01602801949350505050565b600060208284031215612cfd57600080fd5b5051919050565b6020808252602b908201527f496e697469616c697a61626c653a20636f6e7472616374206973206e6f74206960408201526a6e697469616c697a696e6760a81b606082015260800190565b60208082526032908201527f4552433732313a207472616e7366657220746f206e6f6e20455243373231526560408201527131b2b4bb32b91034b6b83632b6b2b73a32b960711b606082015260800190565b6000600019821415612db557612db5612c31565b5060010190565b634e487b7160e01b600052601260045260246000fd5b600082612de157612de1612dbc565b500490565b600082612df557612df5612dbc565b500690565b6000816000190483118215151615612e1457612e14612c31565b500290565b600081612e2857612e28612c31565b506000190190565b6001600160a01b0385811682528416602082015260408101839052608060608201819052600090612e63908301846127e8565b9695505050505050565b600060208284031215612e7f57600080fd5b815161126c81612789565b60008251612e9c8184602087016127bc565b9190910192915050565b634e487b7160e01b600052603160045260246000fdfe360894a13ba1a3210667c828492db98dca3e2076cc3735a920a3ca505d382bbc65d7a28e3265b37a6474929f336521b332c1681b933f6cb9f3376673440d862a416464726573733a206c6f772d6c6576656c2064656c65676174652063616c6c206661696c6564a26469706673582212206f27fa5d18389789e42846fba11c234271e74ce4e4490c30548df61fe69d770e64736f6c634300080c0033",
  "immutableReferences": {
    "895": [
      {
        "length": 32,
        "start": 2628
      },
      {
        "length": 32,
        "start": 2692
      },
      {
        "length": 32,
        "start": 3113
      },
      {
        "length": 32,
        "start": 3177
      },
      {
        "length": 32,
        "start": 3467
      }
    ]
  },
  "source": "// SPDX-License-Identifier: MIT\npragma solidity ^0.8.4;\n\nimport '@openzeppelin/contracts-upgradeable/token/ERC721/ERC721Upgradeable.sol';\nimport '@openzeppelin/contracts-upgradeable/token/ERC721/extensions/ERC721EnumerableUpgradeable.sol';\nimport '@openzeppelin/contracts-upgradeable/security/PausableUpgradeable.sol';\nimport '@openzeppelin/contracts-upgradeable/access/AccessControlUpgradeable.sol';\nimport '@openzeppelin/contracts-upgradeable/token/ERC721/extensions/ERC721BurnableUpgradeable.sol';\nimport '@openzeppelin/contracts-upgradeable/proxy/utils/Initializable.sol';\nimport '@openzeppelin/contracts-upgradeable/proxy/utils/UUPSUpgradeable.sol';\nimport '@openzeppelin/contracts-upgradeable/utils/CountersUpgradeable.sol';\n\ncontract MIRL is\n  Initializable,\n  ERC721Upgradeable,\n  ERC721EnumerableUpgradeable,\n  PausableUpgradeable,\n  AccessControlUpgradeable,\n  ERC721BurnableUpgradeable,\n  UUPSUpgradeable\n{\n  using CountersUpgradeable for CountersUpgradeable.Counter;\n\n  bytes32 public constant PAUSER_ROLE = keccak256('PAUSER_ROLE');\n  bytes32 public constant MINTER_ROLE = keccak256('MINTER_ROLE');\n  CountersUpgradeable.Counter private _tokenIdCounter;\n  bytes32 public constant UPGRADER_ROLE = keccak256('UPGRADER_ROLE');\n\n  /// @custom:oz-upgrades-unsafe-allow constructor\n  constructor() initializer {}\n\n  function initialize() public initializer {\n    __ERC721_init('MIRL', 'MIRL');\n    __ERC721Enumerable_init();\n    __Pausable_init();\n    __AccessControl_init();\n    __ERC721Burnable_init();\n    __UUPSUpgradeable_init();\n\n    _grantRole(DEFAULT_ADMIN_ROLE, msg.sender);\n    _grantRole(PAUSER_ROLE, msg.sender);\n    _grantRole(MINTER_ROLE, msg.sender);\n    _grantRole(UPGRADER_ROLE, msg.sender);\n  }\n\n  function _baseURI() internal pure override returns (string memory) {\n    return 'https://nft.mirl.club/meta/';\n  }\n\n  function pause() public onlyRole(PAUSER_ROLE) {\n    _pause();\n  }\n\n  function unpause() public onlyRole(PAUSER_ROLE) {\n    _unpause();\n  }\n\n  function safeMint(address to) public onlyRole(MINTER_ROLE) {\n    uint256 tokenId = _tokenIdCounter.current();\n    _tokenIdCounter.increment();\n    _safeMint(to, tokenId);\n  }\n\n  function _beforeTokenTransfer(\n    address from,\n    address to,\n    uint256 tokenId\n  ) internal override(ERC721Upgradeable, ERC721EnumerableUpgradeable) whenNotPaused {\n    super._beforeTokenTransfer(from, to, tokenId);\n  }\n\n  function _authorizeUpgrade(address newImplementation) internal override onlyRole(UPGRADER_ROLE) {}\n\n  // The following functions are overrides required by Solidity.\n\n  function supportsInterface(bytes4 interfaceId)\n    public\n    view\n    override(ERC721Upgradeable, ERC721EnumerableUpgradeable, AccessControlUpgradeable)\n    returns (bool)\n  {\n    return super.supportsInterface(interfaceId);\n  }\n}\n",
  "sourcePath": "/Users/brianhoang/Documents/GitHub/WeAreDayOne/MIRL-ERC721/contracts/MIRL.sol",
  "compiler": {
    "name": "solc",
    "version": "0.8.12+commit.f00d7308.Emscripten.clang"
  },
  "schemaVersion": "3.4.5",
  "updatedAt": "2022-03-04T05:25:50.583Z",
  "networkType": "ethereum",
  "devdoc": {
    "kind": "dev",
    "methods": {
      "approve(address,uint256)": {
        "details": "See {IERC721-approve}."
      },
      "balanceOf(address)": {
        "details": "See {IERC721-balanceOf}."
      },
      "burn(uint256)": {
        "details": "Burns `tokenId`. See {ERC721-_burn}. Requirements: - The caller must own `tokenId` or be an approved operator."
      },
      "constructor": {
        "custom:oz-upgrades-unsafe-allow": "constructor"
      },
      "getApproved(uint256)": {
        "details": "See {IERC721-getApproved}."
      },
      "getRoleAdmin(bytes32)": {
        "details": "Returns the admin role that controls `role`. See {grantRole} and {revokeRole}. To change a role's admin, use {_setRoleAdmin}."
      },
      "grantRole(bytes32,address)": {
        "details": "Grants `role` to `account`. If `account` had not been already granted `role`, emits a {RoleGranted} event. Requirements: - the caller must have ``role``'s admin role."
      },
      "hasRole(bytes32,address)": {
        "details": "Returns `true` if `account` has been granted `role`."
      },
      "isApprovedForAll(address,address)": {
        "details": "See {IERC721-isApprovedForAll}."
      },
      "name()": {
        "details": "See {IERC721Metadata-name}."
      },
      "ownerOf(uint256)": {
        "details": "See {IERC721-ownerOf}."
      },
      "paused()": {
        "details": "Returns true if the contract is paused, and false otherwise."
      },
      "proxiableUUID()": {
        "details": "Implementation of the ERC1822 {proxiableUUID} function. This returns the storage slot used by the implementation. It is used to validate that the this implementation remains valid after an upgrade. IMPORTANT: A proxy pointing at a proxiable contract should not be considered proxiable itself, because this risks bricking a proxy that upgrades to it, by delegating to itself until out of gas. Thus it is critical that this function revert if invoked through a proxy. This is guaranteed by the `notDelegated` modifier."
      },
      "renounceRole(bytes32,address)": {
        "details": "Revokes `role` from the calling account. Roles are often managed via {grantRole} and {revokeRole}: this function's purpose is to provide a mechanism for accounts to lose their privileges if they are compromised (such as when a trusted device is misplaced). If the calling account had been revoked `role`, emits a {RoleRevoked} event. Requirements: - the caller must be `account`."
      },
      "revokeRole(bytes32,address)": {
        "details": "Revokes `role` from `account`. If `account` had been granted `role`, emits a {RoleRevoked} event. Requirements: - the caller must have ``role``'s admin role."
      },
      "safeTransferFrom(address,address,uint256)": {
        "details": "See {IERC721-safeTransferFrom}."
      },
      "safeTransferFrom(address,address,uint256,bytes)": {
        "details": "See {IERC721-safeTransferFrom}."
      },
      "setApprovalForAll(address,bool)": {
        "details": "See {IERC721-setApprovalForAll}."
      },
      "symbol()": {
        "details": "See {IERC721Metadata-symbol}."
      },
      "tokenByIndex(uint256)": {
        "details": "See {IERC721Enumerable-tokenByIndex}."
      },
      "tokenOfOwnerByIndex(address,uint256)": {
        "details": "See {IERC721Enumerable-tokenOfOwnerByIndex}."
      },
      "tokenURI(uint256)": {
        "details": "See {IERC721Metadata-tokenURI}."
      },
      "totalSupply()": {
        "details": "See {IERC721Enumerable-totalSupply}."
      },
      "transferFrom(address,address,uint256)": {
        "details": "See {IERC721-transferFrom}."
      },
      "upgradeTo(address)": {
        "details": "Upgrade the implementation of the proxy to `newImplementation`. Calls {_authorizeUpgrade}. Emits an {Upgraded} event."
      },
      "upgradeToAndCall(address,bytes)": {
        "details": "Upgrade the implementation of the proxy to `newImplementation`, and subsequently execute the function call encoded in `data`. Calls {_authorizeUpgrade}. Emits an {Upgraded} event."
      }
    },
    "version": 1
  },
  "userdoc": {
    "kind": "user",
    "methods": {},
    "version": 1
  }
}